:100000000C9434000C943E000C943E000C943E0082
:100010000C943E000C943E000C943E000C943E0068
:100020000C943E000C943E000C943E000C943E0058
:100030000C943E000C943E000C943E000C943E0048
:100040000C943E000C943E000C943E000C943E0038
:100050000C943E000C943E000C943E000C943E0028
:100060000C943E000C943E0011241FBECFEFD8E04C
:10007000DEBFCDBF0E9440000C9467000C940000CE
:10008000549A569A209A229A80E080FF18C05C9A6F
:1000900081FF17C05E9A82FF16C0289A83FF15C0A1
:1000A0002A9A8F3009F480E02FE734E89EE121504E
:1000B00030409040E1F700C000008F5FE6CF5C98D1
:1000C000E7CF5E98E8CF2898E9CF2A98EACFF8944E
:0200D000FFCF60
:00000001FF
